:030013000200A543
:0300030002014FA8
:02000000802E50
:10003000D2AAD28AD2BA759850D2AFD2A8D288D2D8
:10004000B87598507581607C1211ECD28311E37CF5
:100050000011ECD28211E37C0111ECD28111E37C1E
:100060001111ECD28011E37C00310EBC000380C082
:10007000327581607C1612010E11ECD2807D021166
:10008000DB12010E11ECD2817D0211DB12010E1187
:10009000ECD2827D0211DB12010E11ECD2837D02C3
:1000A00011DB80D232758DF3758BF37589207587DE
:1000B00080759850D28E1200C81200D411ECD280F4
:1000C0007D0211DB0200BC3212010EECF599309971
:1000D000FDC29822E5993098FDFC2211DFDDFC7A03
:1000E000FF80027A197BFFDBFEDAFA22C283C2822A
:1000F000C281C280EC11F8229001F393C2867A0883
:10010000339287C284D284DAF7C285D2852275A061
:10011000F0E5A054F0B4F001221200E375A0F0E580
:10012000A054F0B4F00122FD75A00FE5A04DF5F04C
:10013000E5A0B40FFB1200E3E5A0B40FF37E0F7C43
:100140000090020BEC93B5F002214E0CDEF6227506
:100150008920759850758780758DF3758BF3D28ED5
:090160007900E99001D893C299DD
:10016900F5993099FD09B90BF0020175780AE89003
:1001790001D893F5F01201C611ECD2807D0211DB92
:10018900E89001D893F5F01201C611ECD2817D02F5
:1001990011DBE89001D893F5F01201C611ECD28277
:1001A9007D0211DBE89001D893F5F01201C611EC3C
:1001B900D2837D0211DB18B800B40201757E0F7C71
:1001C900009001F3EC93B5F00221D70CDEF622067C
:1001D9005B4F666D7D07065B4F663F065B4F666D3D
:1001E9007D077F67777C395E79713F065B4F666D66
:1001F9007D077F67777C395E79717638373E735C26
:100209008040777B7D7EB7BBBDBED7DBDDDEE7EB0C
:02021900EDEE08
:00000001FF
